{
  "abi": [
    {
      "inputs": [
        {
          "internalType": "string",
          "name": "_name",
          "type": "string"
        },
        {
          "internalType": "string",
          "name": "_symbol",
          "type": "string"
        }
      ],
      "stateMutability": "nonpayable",
      "type": "constructor"
    },
    {
      "anonymous": false,
      "inputs": [
        {
          "indexed": true,
          "internalType": "address",
          "name": "owner",
          "type": "address"
        },
        {
          "indexed": true,
          "internalType": "address",
          "name": "spender",
          "type": "address"
        },
        {
          "indexed": true,
          "internalType": "uint256",
          "name": "id",
          "type": "uint256"
        }
      ],
      "name": "Approval",
      "type": "event"
    },
    {
      "anonymous": false,
      "inputs": [
        {
          "indexed": true,
          "internalType": "address",
          "name": "owner",
          "type": "address"
        },
        {
          "indexed": true,
          "internalType": "address",
          "name": "operator",
          "type": "address"
        },
        {
          "indexed": false,
          "internalType": "bool",
          "name": "approved",
          "type": "bool"
        }
      ],
      "name": "ApprovalForAll",
      "type": "event"
    },
    {
      "anonymous": false,
      "inputs": [
        {
          "indexed": true,
          "internalType": "address",
          "name": "from",
          "type": "address"
        },
        {
          "indexed": true,
          "internalType": "address",
          "name": "to",
          "type": "address"
        },
        {
          "indexed": true,
          "internalType": "uint256",
          "name": "id",
          "type": "uint256"
        }
      ],
      "name": "Transfer",
      "type": "event"
    },
    {
      "inputs": [
        {
          "internalType": "address",
          "name": "spender",
          "type": "address"
        },
        {
          "internalType": "uint256",
          "name": "id",
          "type": "uint256"
        }
      ],
      "name": "approve",
      "outputs": [],
      "stateMutability": "nonpayable",
      "type": "function"
    },
    {
      "inputs": [
        {
          "internalType": "address",
          "name": "owner",
          "type": "address"
        }
      ],
      "name": "balanceOf",
      "outputs": [
        {
          "internalType": "uint256",
          "name": "",
          "type": "uint256"
        }
      ],
      "stateMutability": "view",
      "type": "function"
    },
    {
      "inputs": [],
      "name": "currentTokenId",
      "outputs": [
        {
          "internalType": "uint256",
          "name": "",
          "type": "uint256"
        }
      ],
      "stateMutability": "view",
      "type": "function"
    },
    {
      "inputs": [
        {
          "internalType": "uint256",
          "name": "",
          "type": "uint256"
        }
      ],
      "name": "getApproved",
      "outputs": [
        {
          "internalType": "address",
          "name": "",
          "type": "address"
        }
      ],
      "stateMutability": "view",
      "type": "function"
    },
    {
      "inputs": [
        {
          "internalType": "address",
          "name": "",
          "type": "address"
        },
        {
          "internalType": "address",
          "name": "",
          "type": "address"
        }
      ],
      "name": "isApprovedForAll",
      "outputs": [
        {
          "internalType": "bool",
          "name": "",
          "type": "bool"
        }
      ],
      "stateMutability": "view",
      "type": "function"
    },
    {
      "inputs": [
        {
          "internalType": "address",
          "name": "recipient",
          "type": "address"
        }
      ],
      "name": "mintTo",
      "outputs": [
        {
          "internalType": "uint256",
          "name": "",
          "type": "uint256"
        }
      ],
      "stateMutability": "payable",
      "type": "function"
    },
    {
      "inputs": [],
      "name": "name",
      "outputs": [
        {
          "internalType": "string",
          "name": "",
          "type": "string"
        }
      ],
      "stateMutability": "view",
      "type": "function"
    },
    {
      "inputs": [
        {
          "internalType": "uint256",
          "name": "id",
          "type": "uint256"
        }
      ],
      "name": "ownerOf",
      "outputs": [
        {
          "internalType": "address",
          "name": "owner",
          "type": "address"
        }
      ],
      "stateMutability": "view",
      "type": "function"
    },
    {
      "inputs": [
        {
          "internalType": "address",
          "name": "from",
          "type": "address"
        },
        {
          "internalType": "address",
          "name": "to",
          "type": "address"
        },
        {
          "internalType": "uint256",
          "name": "id",
          "type": "uint256"
        }
      ],
      "name": "safeTransferFrom",
      "outputs": [],
      "stateMutability": "nonpayable",
      "type": "function"
    },
    {
      "inputs": [
        {
          "internalType": "address",
          "name": "from",
          "type": "address"
        },
        {
          "internalType": "address",
          "name": "to",
          "type": "address"
        },
        {
          "internalType": "uint256",
          "name": "id",
          "type": "uint256"
        },
        {
          "internalType": "bytes",
          "name": "data",
          "type": "bytes"
        }
      ],
      "name": "safeTransferFrom",
      "outputs": [],
      "stateMutability": "nonpayable",
      "type": "function"
    },
    {
      "inputs": [
        {
          "internalType": "address",
          "name": "operator",
          "type": "address"
        },
        {
          "internalType": "bool",
          "name": "approved",
          "type": "bool"
        }
      ],
      "name": "setApprovalForAll",
      "outputs": [],
      "stateMutability": "nonpayable",
      "type": "function"
    },
    {
      "inputs": [
        {
          "internalType": "bytes4",
          "name": "interfaceId",
          "type": "bytes4"
        }
      ],
      "name": "supportsInterface",
      "outputs": [
        {
          "internalType": "bool",
          "name": "",
          "type": "bool"
        }
      ],
      "stateMutability": "view",
      "type": "function"
    },
    {
      "inputs": [],
      "name": "symbol",
      "outputs": [
        {
          "internalType": "string",
          "name": "",
          "type": "string"
        }
      ],
      "stateMutability": "view",
      "type": "function"
    },
    {
      "inputs": [
        {
          "internalType": "uint256",
          "name": "id",
          "type": "uint256"
        }
      ],
      "name": "tokenURI",
      "outputs": [
        {
          "internalType": "string",
          "name": "",
          "type": "string"
        }
      ],
      "stateMutability": "view",
      "type": "function"
    },
    {
      "inputs": [
        {
          "internalType": "address",
          "name": "from",
          "type": "address"
        },
        {
          "internalType": "address",
          "name": "to",
          "type": "address"
        },
        {
          "internalType": "uint256",
          "name": "id",
          "type": "uint256"
        }
      ],
      "name": "transferFrom",
      "outputs": [],
      "stateMutability": "nonpayable",
      "type": "function"
    }
  ],
  "bytecode": {
    "object": "0x60806040523480156200001157600080fd5b506040516200133e3803806200133e8339810160408190526200003491620001e1565b8151829082906200004d9060009060208501906200006e565b508051620000639060019060208401906200006e565b505050505062000287565b8280546200007c906200024b565b90600052602060002090601f016020900481019282620000a05760008555620000eb565b82601f10620000bb57805160ff1916838001178555620000eb565b82800160010185558215620000eb579182015b82811115620000eb578251825591602001919060010190620000ce565b50620000f9929150620000fd565b5090565b5b80821115620000f95760008155600101620000fe565b634e487b7160e01b600052604160045260246000fd5b600082601f8301126200013c57600080fd5b81516001600160401b038082111562000159576200015962000114565b604051601f8301601f19908116603f0116810190828211818310171562000184576200018462000114565b81604052838152602092508683858801011115620001a157600080fd5b600091505b83821015620001c55785820183015181830184015290820190620001a6565b83821115620001d75760008385830101525b9695505050505050565b60008060408385031215620001f557600080fd5b82516001600160401b03808211156200020d57600080fd5b6200021b868387016200012a565b935060208501519150808211156200023257600080fd5b5062000241858286016200012a565b9150509250929050565b600181811c908216806200026057607f821691505b6020821081036200028157634e487b7160e01b600052602260045260246000fd5b50919050565b6110a780620002976000396000f3fe6080604052600436106100e75760003560e01c80636352211e1161008a578063a22cb46511610059578063a22cb4651461027f578063b88d4fde1461029f578063c87b56dd146102bf578063e985e9c5146102df57600080fd5b80636352211e1461021757806370a0823114610237578063755edd171461025757806395d89b411461026a57600080fd5b8063081812fc116100c6578063081812fc14610167578063095ea7b3146101b557806323b872dd146101d757806342842e0e146101f757600080fd5b80629a9b7b146100ec57806301ffc9a71461011557806306fdde0314610145575b600080fd5b3480156100f857600080fd5b5061010260065481565b6040519081526020015b60405180910390f35b34801561012157600080fd5b50610135610130366004610ca0565b61031a565b604051901515815260200161010c565b34801561015157600080fd5b5061015a61036c565b60405161010c9190610cc4565b34801561017357600080fd5b5061019d610182366004610d19565b6004602052600090815260409020546001600160a01b031681565b6040516001600160a01b03909116815260200161010c565b3480156101c157600080fd5b506101d56101d0366004610d49565b6103fa565b005b3480156101e357600080fd5b506101d56101f2366004610d73565b6104e1565b34801561020357600080fd5b506101d5610212366004610d73565b6106a8565b34801561022357600080fd5b5061019d610232366004610d19565b61077d565b34801561024357600080fd5b50610102610252366004610daf565b6107d4565b610102610265366004610daf565b610837565b34801561027657600080fd5b5061015a61085a565b34801561028b57600080fd5b506101d561029a366004610dca565b610867565b3480156102ab57600080fd5b506101d56102ba366004610e06565b6108d3565b3480156102cb57600080fd5b5061015a6102da366004610d19565b610998565b3480156102eb57600080fd5b506101356102fa366004610ea1565b600560209081526000928352604080842090915290825290205460ff1681565b60006301ffc9a760e01b6001600160e01b03198316148061034b57506380ac58cd60e01b6001600160e01b03198316145b806103665750635b5e139f60e01b6001600160e01b03198316145b92915050565b6000805461037990610ed4565b80601f01602080910402602001604051908101604052809291908181526020018280546103a590610ed4565b80156103f25780601f106103c7576101008083540402835291602001916103f2565b820191906000526020600020905b8154815290600101906020018083116103d557829003601f168201915b505050505081565b6000818152600260205260409020546001600160a01b03163381148061044357506001600160a01b038116600090815260056020908152604080832033845290915290205460ff165b6104855760405162461bcd60e51b815260206004820152600e60248201526d1393d517d055551213d49256915160921b60448201526064015b60405180910390fd5b60008281526004602052604080822080546001600160a01b0319166001600160a01b0387811691821790925591518593918516917f8c5be1e5ebec7d5bd14f71427d1e84f3dd0314c0f7b2291e5b200ac8c7c3b92591a4505050565b6000818152600260205260409020546001600160a01b038481169116146105375760405162461bcd60e51b815260206004820152600a60248201526957524f4e475f46524f4d60b01b604482015260640161047c565b6001600160a01b0382166105815760405162461bcd60e51b81526020600482015260116024820152701253959053125117d49150d25412515395607a1b604482015260640161047c565b336001600160a01b03841614806105bb57506001600160a01b038316600090815260056020908152604080832033845290915290205460ff165b806105dc57506000818152600460205260409020546001600160a01b031633145b6106195760405162461bcd60e51b815260206004820152600e60248201526d1393d517d055551213d49256915160921b604482015260640161047c565b6001600160a01b0380841660008181526003602090815260408083208054600019019055938616808352848320805460010190558583526002825284832080546001600160a01b03199081168317909155600490925284832080549092169091559251849392917fddf252ad1be2c89b69c2b068fc378daa952ba7f163c4a11628f55a4df523b3ef91a4505050565b6106b38383836104e1565b6001600160a01b0382163b158061075c5750604051630a85bd0160e11b8082523360048301526001600160a01b03858116602484015260448301849052608060648401526000608484015290919084169063150b7a029060a4016020604051808303816000875af115801561072c573d6000803e3d6000fd5b505050506040513d601f19601f820116820180604052508101906107509190610f0e565b6001600160e01b031916145b6107785760405162461bcd60e51b815260040161047c90610f2b565b505050565b6000818152600260205260409020546001600160a01b0316806107cf5760405162461bcd60e51b815260206004820152600a6024820152691393d517d3525395115160b21b604482015260640161047c565b919050565b60006001600160a01b03821661081b5760405162461bcd60e51b815260206004820152600c60248201526b5a45524f5f4144445245535360a01b604482015260640161047c565b506001600160a01b031660009081526003602052604090205490565b60008060066000815461084990610f6b565b9182905550905061036683826109a3565b6001805461037990610ed4565b3360008181526005602090815260408083206001600160a01b03871680855290835292819020805460ff191686151590811790915590519081529192917f17307eab39ab6107e8899845ad3d59bd9653f200f220920489ca2b5937696c31910160405180910390a35050565b6108de8585856104e1565b6001600160a01b0384163b15806109755750604051630a85bd0160e11b808252906001600160a01b0386169063150b7a02906109269033908a90899089908990600401610f84565b6020604051808303816000875af1158015610945573d6000803e3d6000fd5b505050506040513d601f19601f820116820180604052508101906109699190610f0e565b6001600160e01b031916145b6109915760405162461bcd60e51b815260040161047c90610f2b565b5050505050565b606061036682610a73565b6109ad8282610b7c565b6001600160a01b0382163b1580610a535750604051630a85bd0160e11b80825233600483015260006024830181905260448301849052608060648401526084830152906001600160a01b0384169063150b7a029060a4016020604051808303816000875af1158015610a23573d6000803e3d6000fd5b505050506040513d601f19601f82011682018060405250810190610a479190610f0e565b6001600160e01b031916145b610a6f5760405162461bcd60e51b815260040161047c90610f2b565b5050565b606081600003610a9a5750506040805180820190915260018152600360fc1b602082015290565b8160005b8115610ac45780610aae81610f6b565b9150610abd9050600a83610fee565b9150610a9e565b60008167ffffffffffffffff811115610adf57610adf611002565b6040519080825280601f01601f191660200182016040528015610b09576020820181803683370190505b5090505b8415610b7457610b1e600183611018565b9150610b2b600a8661102f565b610b36906030611043565b60f81b818381518110610b4b57610b4b61105b565b60200101906001600160f81b031916908160001a905350610b6d600a86610fee565b9450610b0d565b949350505050565b6001600160a01b038216610bc65760405162461bcd60e51b81526020600482015260116024820152701253959053125117d49150d25412515395607a1b604482015260640161047c565b6000818152600260205260409020546001600160a01b031615610c1c5760405162461bcd60e51b815260206004820152600e60248201526d1053149150511657d3525395115160921b604482015260640161047c565b6001600160a01b038216600081815260036020908152604080832080546001019055848352600290915280822080546001600160a01b0319168417905551839291907fddf252ad1be2c89b69c2b068fc378daa952ba7f163c4a11628f55a4df523b3ef908290a45050565b6001600160e01b031981168114610c9d57600080fd5b50565b600060208284031215610cb257600080fd5b8135610cbd81610c87565b9392505050565b600060208083528351808285015260005b81811015610cf157858101830151858201604001528201610cd5565b81811115610d03576000604083870101525b50601f01601f1916929092016040019392505050565b600060208284031215610d2b57600080fd5b5035919050565b80356001600160a01b03811681146107cf57600080fd5b60008060408385031215610d5c57600080fd5b610d6583610d32565b946020939093013593505050565b600080600060608486031215610d8857600080fd5b610d9184610d32565b9250610d9f60208501610d32565b9150604084013590509250925092565b600060208284031215610dc157600080fd5b610cbd82610d32565b60008060408385031215610ddd57600080fd5b610de683610d32565b915060208301358015158114610dfb57600080fd5b809150509250929050565b600080600080600060808688031215610e1e57600080fd5b610e2786610d32565b9450610e3560208701610d32565b935060408601359250606086013567ffffffffffffffff80821115610e5957600080fd5b818801915088601f830112610e6d57600080fd5b813581811115610e7c57600080fd5b896020828501011115610e8e57600080fd5b9699959850939650602001949392505050565b60008060408385031215610eb457600080fd5b610ebd83610d32565b9150610ecb60208401610d32565b90509250929050565b600181811c90821680610ee857607f821691505b602082108103610f0857634e487b7160e01b600052602260045260246000fd5b50919050565b600060208284031215610f2057600080fd5b8151610cbd81610c87565b60208082526010908201526f155394d0519157d49150d2541251539560821b604082015260600190565b634e487b7160e01b600052601160045260246000fd5b600060018201610f7d57610f7d610f55565b5060010190565b6001600160a01b038681168252851660208201526040810184905260806060820181905281018290526000828460a0840137600060a0848401015260a0601f19601f85011683010190509695505050505050565b634e487b7160e01b600052601260045260246000fd5b600082610ffd57610ffd610fd8565b500490565b634e487b7160e01b600052604160045260246000fd5b60008282101561102a5761102a610f55565b500390565b60008261103e5761103e610fd8565b500690565b6000821982111561105657611056610f55565b500190565b634e487b7160e01b600052603260045260246000fdfea26469706673582212201a860864e0630078dff137e39eda8bf24596bf287aae1560536d2dc71f233e9e64736f6c634300080d0033",
    "linkReferences": {}
  },
  "methodIdentifiers": {
    "approve(address,uint256)": "095ea7b3",
    "balanceOf(address)": "70a08231",
    "currentTokenId()": "009a9b7b",
    "getApproved(uint256)": "081812fc",
    "isApprovedForAll(address,address)": "e985e9c5",
    "mintTo(address)": "755edd17",
    "name()": "06fdde03",
    "ownerOf(uint256)": "6352211e",
    "safeTransferFrom(address,address,uint256)": "42842e0e",
    "safeTransferFrom(address,address,uint256,bytes)": "b88d4fde",
    "setApprovalForAll(address,bool)": "a22cb465",
    "supportsInterface(bytes4)": "01ffc9a7",
    "symbol()": "95d89b41",
    "tokenURI(uint256)": "c87b56dd",
    "transferFrom(address,address,uint256)": "23b872dd"
  },
  "id": 2
}