{
  "abi": [
    {
      "inputs": [
        {
          "internalType": "string",
          "name": "_name",
          "type": "string"
        },
        {
          "internalType": "string",
          "name": "_symbol",
          "type": "string"
        },
        {
          "internalType": "string",
          "name": "_baseURI",
          "type": "string"
        }
      ],
      "stateMutability": "nonpayable",
      "type": "constructor"
    },
    {
      "inputs": [],
      "name": "MaxSupply",
      "type": "error"
    },
    {
      "inputs": [],
      "name": "MintPriceNotPaid",
      "type": "error"
    },
    {
      "inputs": [],
      "name": "NonExistentTokenURI",
      "type": "error"
    },
    {
      "inputs": [],
      "name": "WithdrawTransfer",
      "type": "error"
    },
    {
      "anonymous": false,
      "inputs": [
        {
          "indexed": true,
          "internalType": "address",
          "name": "owner",
          "type": "address"
        },
        {
          "indexed": true,
          "internalType": "address",
          "name": "spender",
          "type": "address"
        },
        {
          "indexed": true,
          "internalType": "uint256",
          "name": "id",
          "type": "uint256"
        }
      ],
      "name": "Approval",
      "type": "event"
    },
    {
      "anonymous": false,
      "inputs": [
        {
          "indexed": true,
          "internalType": "address",
          "name": "owner",
          "type": "address"
        },
        {
          "indexed": true,
          "internalType": "address",
          "name": "operator",
          "type": "address"
        },
        {
          "indexed": false,
          "internalType": "bool",
          "name": "approved",
          "type": "bool"
        }
      ],
      "name": "ApprovalForAll",
      "type": "event"
    },
    {
      "anonymous": false,
      "inputs": [
        {
          "indexed": true,
          "internalType": "address",
          "name": "previousOwner",
          "type": "address"
        },
        {
          "indexed": true,
          "internalType": "address",
          "name": "newOwner",
          "type": "address"
        }
      ],
      "name": "OwnershipTransferred",
      "type": "event"
    },
    {
      "anonymous": false,
      "inputs": [
        {
          "indexed": true,
          "internalType": "address",
          "name": "from",
          "type": "address"
        },
        {
          "indexed": true,
          "internalType": "address",
          "name": "to",
          "type": "address"
        },
        {
          "indexed": true,
          "internalType": "uint256",
          "name": "id",
          "type": "uint256"
        }
      ],
      "name": "Transfer",
      "type": "event"
    },
    {
      "inputs": [],
      "name": "MINT_PRICE",
      "outputs": [
        {
          "internalType": "uint256",
          "name": "",
          "type": "uint256"
        }
      ],
      "stateMutability": "view",
      "type": "function"
    },
    {
      "inputs": [],
      "name": "TOTAL_SUPPLY",
      "outputs": [
        {
          "internalType": "uint256",
          "name": "",
          "type": "uint256"
        }
      ],
      "stateMutability": "view",
      "type": "function"
    },
    {
      "inputs": [
        {
          "internalType": "address",
          "name": "spender",
          "type": "address"
        },
        {
          "internalType": "uint256",
          "name": "id",
          "type": "uint256"
        }
      ],
      "name": "approve",
      "outputs": [],
      "stateMutability": "nonpayable",
      "type": "function"
    },
    {
      "inputs": [
        {
          "internalType": "address",
          "name": "owner",
          "type": "address"
        }
      ],
      "name": "balanceOf",
      "outputs": [
        {
          "internalType": "uint256",
          "name": "",
          "type": "uint256"
        }
      ],
      "stateMutability": "view",
      "type": "function"
    },
    {
      "inputs": [],
      "name": "baseURI",
      "outputs": [
        {
          "internalType": "string",
          "name": "",
          "type": "string"
        }
      ],
      "stateMutability": "view",
      "type": "function"
    },
    {
      "inputs": [],
      "name": "currentTokenId",
      "outputs": [
        {
          "internalType": "uint256",
          "name": "",
          "type": "uint256"
        }
      ],
      "stateMutability": "view",
      "type": "function"
    },
    {
      "inputs": [
        {
          "internalType": "uint256",
          "name": "",
          "type": "uint256"
        }
      ],
      "name": "getApproved",
      "outputs": [
        {
          "internalType": "address",
          "name": "",
          "type": "address"
        }
      ],
      "stateMutability": "view",
      "type": "function"
    },
    {
      "inputs": [
        {
          "internalType": "address",
          "name": "",
          "type": "address"
        },
        {
          "internalType": "address",
          "name": "",
          "type": "address"
        }
      ],
      "name": "isApprovedForAll",
      "outputs": [
        {
          "internalType": "bool",
          "name": "",
          "type": "bool"
        }
      ],
      "stateMutability": "view",
      "type": "function"
    },
    {
      "inputs": [
        {
          "internalType": "address",
          "name": "recipient",
          "type": "address"
        }
      ],
      "name": "mintTo",
      "outputs": [
        {
          "internalType": "uint256",
          "name": "",
          "type": "uint256"
        }
      ],
      "stateMutability": "payable",
      "type": "function"
    },
    {
      "inputs": [],
      "name": "name",
      "outputs": [
        {
          "internalType": "string",
          "name": "",
          "type": "string"
        }
      ],
      "stateMutability": "view",
      "type": "function"
    },
    {
      "inputs": [],
      "name": "owner",
      "outputs": [
        {
          "internalType": "address",
          "name": "",
          "type": "address"
        }
      ],
      "stateMutability": "view",
      "type": "function"
    },
    {
      "inputs": [
        {
          "internalType": "uint256",
          "name": "id",
          "type": "uint256"
        }
      ],
      "name": "ownerOf",
      "outputs": [
        {
          "internalType": "address",
          "name": "owner",
          "type": "address"
        }
      ],
      "stateMutability": "view",
      "type": "function"
    },
    {
      "inputs": [],
      "name": "renounceOwnership",
      "outputs": [],
      "stateMutability": "nonpayable",
      "type": "function"
    },
    {
      "inputs": [
        {
          "internalType": "address",
          "name": "from",
          "type": "address"
        },
        {
          "internalType": "address",
          "name": "to",
          "type": "address"
        },
        {
          "internalType": "uint256",
          "name": "id",
          "type": "uint256"
        }
      ],
      "name": "safeTransferFrom",
      "outputs": [],
      "stateMutability": "nonpayable",
      "type": "function"
    },
    {
      "inputs": [
        {
          "internalType": "address",
          "name": "from",
          "type": "address"
        },
        {
          "internalType": "address",
          "name": "to",
          "type": "address"
        },
        {
          "internalType": "uint256",
          "name": "id",
          "type": "uint256"
        },
        {
          "internalType": "bytes",
          "name": "data",
          "type": "bytes"
        }
      ],
      "name": "safeTransferFrom",
      "outputs": [],
      "stateMutability": "nonpayable",
      "type": "function"
    },
    {
      "inputs": [
        {
          "internalType": "address",
          "name": "operator",
          "type": "address"
        },
        {
          "internalType": "bool",
          "name": "approved",
          "type": "bool"
        }
      ],
      "name": "setApprovalForAll",
      "outputs": [],
      "stateMutability": "nonpayable",
      "type": "function"
    },
    {
      "inputs": [
        {
          "internalType": "bytes4",
          "name": "interfaceId",
          "type": "bytes4"
        }
      ],
      "name": "supportsInterface",
      "outputs": [
        {
          "internalType": "bool",
          "name": "",
          "type": "bool"
        }
      ],
      "stateMutability": "view",
      "type": "function"
    },
    {
      "inputs": [],
      "name": "symbol",
      "outputs": [
        {
          "internalType": "string",
          "name": "",
          "type": "string"
        }
      ],
      "stateMutability": "view",
      "type": "function"
    },
    {
      "inputs": [
        {
          "internalType": "uint256",
          "name": "tokenId",
          "type": "uint256"
        }
      ],
      "name": "tokenURI",
      "outputs": [
        {
          "internalType": "string",
          "name": "",
          "type": "string"
        }
      ],
      "stateMutability": "view",
      "type": "function"
    },
    {
      "inputs": [
        {
          "internalType": "address",
          "name": "from",
          "type": "address"
        },
        {
          "internalType": "address",
          "name": "to",
          "type": "address"
        },
        {
          "internalType": "uint256",
          "name": "id",
          "type": "uint256"
        }
      ],
      "name": "transferFrom",
      "outputs": [],
      "stateMutability": "nonpayable",
      "type": "function"
    },
    {
      "inputs": [
        {
          "internalType": "address",
          "name": "newOwner",
          "type": "address"
        }
      ],
      "name": "transferOwnership",
      "outputs": [],
      "stateMutability": "nonpayable",
      "type": "function"
    },
    {
      "inputs": [
        {
          "internalType": "address payable",
          "name": "payee",
          "type": "address"
        }
      ],
      "name": "withdrawPayments",
      "outputs": [],
      "stateMutability": "nonpayable",
      "type": "function"
    }
  ],
  "bytecode": {
    "object": "0x60806040523480156200001157600080fd5b506040516200185a3803806200185a833981016040819052620000349162000268565b8251839083906200004d906000906020850190620000f5565b50805162000063906001906020840190620000f5565b505050620000806200007a6200009f60201b60201c565b620000a3565b805162000095906007906020840190620000f5565b5050505062000336565b3390565b600680546001600160a01b038381166001600160a01b0319831681179093556040519116919082907f8be0079c531659141344cd1fd0a4f28419497f9722a3daafe3b4186f6b6457e090600090a35050565b8280546200010390620002f9565b90600052602060002090601f01602090048101928262000127576000855562000172565b82601f106200014257805160ff191683800117855562000172565b8280016001018555821562000172579182015b828111156200017257825182559160200191906001019062000155565b506200018092915062000184565b5090565b5b8082111562000180576000815560010162000185565b634e487b7160e01b600052604160045260246000fd5b600082601f830112620001c357600080fd5b81516001600160401b0380821115620001e057620001e06200019b565b604051601f8301601f19908116603f011681019082821181831017156200020b576200020b6200019b565b816040528381526020925086838588010111156200022857600080fd5b600091505b838210156200024c57858201830151818301840152908201906200022d565b838211156200025e5760008385830101525b9695505050505050565b6000806000606084860312156200027e57600080fd5b83516001600160401b03808211156200029657600080fd5b620002a487838801620001b1565b94506020860151915080821115620002bb57600080fd5b620002c987838801620001b1565b93506040860151915080821115620002e057600080fd5b50620002ef86828701620001b1565b9150509250925092565b600181811c908216806200030e57607f821691505b602082108114156200033057634e487b7160e01b600052602260045260246000fd5b50919050565b61151480620003466000396000f3fe6080604052600436106101345760003560e01c8063715018a6116100ab578063a22cb4651161006f578063a22cb46514610349578063b88d4fde14610369578063c002d23d14610389578063c87b56dd146103a4578063e985e9c5146103c4578063f2fde38b146103ff57600080fd5b8063715018a6146102d9578063755edd17146102ee5780638da5cb5b14610301578063902d55a51461031f57806395d89b411461033457600080fd5b806323b872dd116100fd57806323b872dd1461022457806331b3eb941461024457806342842e0e146102645780636352211e146102845780636c0360eb146102a457806370a08231146102b957600080fd5b80629a9b7b1461013957806301ffc9a71461016257806306fdde0314610192578063081812fc146101b4578063095ea7b314610202575b600080fd5b34801561014557600080fd5b5061014f60085481565b6040519081526020015b60405180910390f35b34801561016e57600080fd5b5061018261017d366004611031565b61041f565b6040519015158152602001610159565b34801561019e57600080fd5b506101a7610471565b6040516101599190611085565b3480156101c057600080fd5b506101ea6101cf3660046110b8565b6004602052600090815260409020546001600160a01b031681565b6040516001600160a01b039091168152602001610159565b34801561020e57600080fd5b5061022261021d3660046110e6565b6104ff565b005b34801561023057600080fd5b5061022261023f366004611112565b6105e6565b34801561025057600080fd5b5061022261025f366004611153565b6107ad565b34801561027057600080fd5b5061022261027f366004611112565b61082e565b34801561029057600080fd5b506101ea61029f3660046110b8565b6108fe565b3480156102b057600080fd5b506101a7610955565b3480156102c557600080fd5b5061014f6102d4366004611153565b610962565b3480156102e557600080fd5b506102226109c5565b61014f6102fc366004611153565b6109d9565b34801561030d57600080fd5b506006546001600160a01b03166101ea565b34801561032b57600080fd5b5061014f600c81565b34801561034057600080fd5b506101a7610a46565b34801561035557600080fd5b50610222610364366004611170565b610a53565b34801561037557600080fd5b506102226103843660046111ae565b610abf565b34801561039557600080fd5b5061014f662aa1efb94e000081565b3480156103b057600080fd5b506101a76103bf3660046110b8565b610b84565b3480156103d057600080fd5b506101826103df36600461124d565b600560209081526000928352604080842090915290825290205460ff1681565b34801561040b57600080fd5b5061022261041a366004611153565b610c15565b60006301ffc9a760e01b6001600160e01b03198316148061045057506380ac58cd60e01b6001600160e01b03198316145b8061046b5750635b5e139f60e01b6001600160e01b03198316145b92915050565b6000805461047e9061127b565b80601f01602080910402602001604051908101604052809291908181526020018280546104aa9061127b565b80156104f75780601f106104cc576101008083540402835291602001916104f7565b820191906000526020600020905b8154815290600101906020018083116104da57829003601f168201915b505050505081565b6000818152600260205260409020546001600160a01b03163381148061054857506001600160a01b038116600090815260056020908152604080832033845290915290205460ff165b61058a5760405162461bcd60e51b815260206004820152600e60248201526d1393d517d055551213d49256915160921b60448201526064015b60405180910390fd5b60008281526004602052604080822080546001600160a01b0319166001600160a01b0387811691821790925591518593918516917f8c5be1e5ebec7d5bd14f71427d1e84f3dd0314c0f7b2291e5b200ac8c7c3b92591a4505050565b6000818152600260205260409020546001600160a01b0384811691161461063c5760405162461bcd60e51b815260206004820152600a60248201526957524f4e475f46524f4d60b01b6044820152606401610581565b6001600160a01b0382166106865760405162461bcd60e51b81526020600482015260116024820152701253959053125117d49150d25412515395607a1b6044820152606401610581565b336001600160a01b03841614806106c057506001600160a01b038316600090815260056020908152604080832033845290915290205460ff165b806106e157506000818152600460205260409020546001600160a01b031633145b61071e5760405162461bcd60e51b815260206004820152600e60248201526d1393d517d055551213d49256915160921b6044820152606401610581565b6001600160a01b0380841660008181526003602090815260408083208054600019019055938616808352848320805460010190558583526002825284832080546001600160a01b03199081168317909155600490925284832080549092169091559251849392917fddf252ad1be2c89b69c2b068fc378daa952ba7f163c4a11628f55a4df523b3ef91a4505050565b6107b5610c8e565b60405147906000906001600160a01b0384169083908381818185875af1925050503d8060008114610802576040519150601f19603f3d011682016040523d82523d6000602084013e610807565b606091505b50509050806108295760405163d23a9e8960e01b815260040160405180910390fd5b505050565b6108398383836105e6565b6001600160a01b0382163b15806108e25750604051630a85bd0160e11b8082523360048301526001600160a01b03858116602484015260448301849052608060648401526000608484015290919084169063150b7a029060a4016020604051808303816000875af11580156108b2573d6000803e3d6000fd5b505050506040513d601f19601f820116820180604052508101906108d691906112b6565b6001600160e01b031916145b6108295760405162461bcd60e51b8152600401610581906112d3565b6000818152600260205260409020546001600160a01b0316806109505760405162461bcd60e51b815260206004820152600a6024820152691393d517d3525395115160b21b6044820152606401610581565b919050565b6007805461047e9061127b565b60006001600160a01b0382166109a95760405162461bcd60e51b815260206004820152600c60248201526b5a45524f5f4144445245535360a01b6044820152606401610581565b506001600160a01b031660009081526003602052604090205490565b6109cd610c8e565b6109d76000610ce8565b565b6000662aa1efb94e00003414610a02576040516310f0c8f160e11b815260040160405180910390fd5b6000600860008154610a1390611313565b91829055509050600c811115610a3c57604051632cdb04a160e21b815260040160405180910390fd5b61046b8382610d3a565b6001805461047e9061127b565b3360008181526005602090815260408083206001600160a01b03871680855290835292819020805460ff191686151590811790915590519081529192917f17307eab39ab6107e8899845ad3d59bd9653f200f220920489ca2b5937696c31910160405180910390a35050565b610aca8585856105e6565b6001600160a01b0384163b1580610b615750604051630a85bd0160e11b808252906001600160a01b0386169063150b7a0290610b129033908a9089908990899060040161132e565b6020604051808303816000875af1158015610b31573d6000803e3d6000fd5b505050506040513d601f19601f82011682018060405250810190610b5591906112b6565b6001600160e01b031916145b610b7d5760405162461bcd60e51b8152600401610581906112d3565b5050505050565b60606000610b91836108fe565b6001600160a01b03161415610bb95760405163d872946b60e01b815260040160405180910390fd5b600060078054610bc89061127b565b905011610be4576040518060200160405280600081525061046b565b6007610bef83610e0a565b604051602001610c0092919061139e565b60405160208183030381529060405292915050565b610c1d610c8e565b6001600160a01b038116610c825760405162461bcd60e51b815260206004820152602660248201527f4f776e61626c653a206e6577206f776e657220697320746865207a65726f206160448201526564647265737360d01b6064820152608401610581565b610c8b81610ce8565b50565b6006546001600160a01b031633146109d75760405162461bcd60e51b815260206004820181905260248201527f4f776e61626c653a2063616c6c6572206973206e6f7420746865206f776e65726044820152606401610581565b600680546001600160a01b038381166001600160a01b0319831681179093556040519116919082907f8be0079c531659141344cd1fd0a4f28419497f9722a3daafe3b4186f6b6457e090600090a35050565b610d448282610f10565b6001600160a01b0382163b1580610dea5750604051630a85bd0160e11b80825233600483015260006024830181905260448301849052608060648401526084830152906001600160a01b0384169063150b7a029060a4016020604051808303816000875af1158015610dba573d6000803e3d6000fd5b505050506040513d601f19601f82011682018060405250810190610dde91906112b6565b6001600160e01b031916145b610e065760405162461bcd60e51b8152600401610581906112d3565b5050565b606081610e2e5750506040805180820190915260018152600360fc1b602082015290565b8160005b8115610e585780610e4281611313565b9150610e519050600a8361145b565b9150610e32565b60008167ffffffffffffffff811115610e7357610e7361146f565b6040519080825280601f01601f191660200182016040528015610e9d576020820181803683370190505b5090505b8415610f0857610eb2600183611485565b9150610ebf600a8661149c565b610eca9060306114b0565b60f81b818381518110610edf57610edf6114c8565b60200101906001600160f81b031916908160001a905350610f01600a8661145b565b9450610ea1565b949350505050565b6001600160a01b038216610f5a5760405162461bcd60e51b81526020600482015260116024820152701253959053125117d49150d25412515395607a1b6044820152606401610581565b6000818152600260205260409020546001600160a01b031615610fb05760405162461bcd60e51b815260206004820152600e60248201526d1053149150511657d3525395115160921b6044820152606401610581565b6001600160a01b038216600081815260036020908152604080832080546001019055848352600290915280822080546001600160a01b0319168417905551839291907fddf252ad1be2c89b69c2b068fc378daa952ba7f163c4a11628f55a4df523b3ef908290a45050565b6001600160e01b031981168114610c8b57600080fd5b60006020828403121561104357600080fd5b813561104e8161101b565b9392505050565b60005b83811015611070578181015183820152602001611058565b8381111561107f576000848401525b50505050565b60208152600082518060208401526110a4816040850160208701611055565b601f01601f19169190910160400192915050565b6000602082840312156110ca57600080fd5b5035919050565b6001600160a01b0381168114610c8b57600080fd5b600080604083850312156110f957600080fd5b8235611104816110d1565b946020939093013593505050565b60008060006060848603121561112757600080fd5b8335611132816110d1565b92506020840135611142816110d1565b929592945050506040919091013590565b60006020828403121561116557600080fd5b813561104e816110d1565b6000806040838503121561118357600080fd5b823561118e816110d1565b9150602083013580151581146111a357600080fd5b809150509250929050565b6000806000806000608086880312156111c657600080fd5b85356111d1816110d1565b945060208601356111e1816110d1565b935060408601359250606086013567ffffffffffffffff8082111561120557600080fd5b818801915088601f83011261121957600080fd5b81358181111561122857600080fd5b89602082850101111561123a57600080fd5b9699959850939650602001949392505050565b6000806040838503121561126057600080fd5b823561126b816110d1565b915060208301356111a3816110d1565b600181811c9082168061128f57607f821691505b602082108114156112b057634e487b7160e01b600052602260045260246000fd5b50919050565b6000602082840312156112c857600080fd5b815161104e8161101b565b60208082526010908201526f155394d0519157d49150d2541251539560821b604082015260600190565b634e487b7160e01b600052601160045260246000fd5b6000600019821415611327576113276112fd565b5060010190565b6001600160a01b038681168252851660208201526040810184905260806060820181905281018290526000828460a0840137600060a0848401015260a0601f19601f85011683010190509695505050505050565b60008151611394818560208601611055565b9290920192915050565b600080845481600182811c9150808316806113ba57607f831692505b60208084108214156113da57634e487b7160e01b86526022600452602486fd5b8180156113ee57600181146113ff5761142c565b60ff1986168952848901965061142c565b60008b81526020902060005b868110156114245781548b82015290850190830161140b565b505084890196505b50505050505061143c8185611382565b95945050505050565b634e487b7160e01b600052601260045260246000fd5b60008261146a5761146a611445565b500490565b634e487b7160e01b600052604160045260246000fd5b600082821015611497576114976112fd565b500390565b6000826114ab576114ab611445565b500690565b600082198211156114c3576114c36112fd565b500190565b634e487b7160e01b600052603260045260246000fdfea2646970667358221220f5f8d0a31027e39ee0d693523b87507ff118a282886e5c7d956988b299d3aef364736f6c634300080a0033",
    "linkReferences": {}
  },
  "methodIdentifiers": {
    "MINT_PRICE()": "c002d23d",
    "TOTAL_SUPPLY()": "902d55a5",
    "approve(address,uint256)": "095ea7b3",
    "balanceOf(address)": "70a08231",
    "baseURI()": "6c0360eb",
    "currentTokenId()": "009a9b7b",
    "getApproved(uint256)": "081812fc",
    "isApprovedForAll(address,address)": "e985e9c5",
    "mintTo(address)": "755edd17",
    "name()": "06fdde03",
    "owner()": "8da5cb5b",
    "ownerOf(uint256)": "6352211e",
    "renounceOwnership()": "715018a6",
    "safeTransferFrom(address,address,uint256)": "42842e0e",
    "safeTransferFrom(address,address,uint256,bytes)": "b88d4fde",
    "setApprovalForAll(address,bool)": "a22cb465",
    "supportsInterface(bytes4)": "01ffc9a7",
    "symbol()": "95d89b41",
    "tokenURI(uint256)": "c87b56dd",
    "transferFrom(address,address,uint256)": "23b872dd",
    "transferOwnership(address)": "f2fde38b",
    "withdrawPayments(address)": "31b3eb94"
  },
  "id": 5
}